:020000040000fa
:080000005c3104000000000067
:020000040000fa
:10280000ee14040000000000642704000000000033
:102810009629040000000000562904000000000072
:10282000862a040000000000862c0400000000003e
:10283000702d0400000000008001eb000200370052
:1028400061f079008301e800828f5100fcff3a00bb
:102850000000060000037800800178000002eb0011
:10286000010037008059780084025100820f520025
:102870000900320064c078000402e8000004e000af
:10288000f8ff3a00830078008058eb000580410093
:10289000808f5000fcff3a00060078000000060020
:1028a0008001eb0002003700817178008301e800ad
:1028b000828f5100fcff3a0000000600839f6800f1
:1028c0000100e00002003d0060001000e080180000
:1028d0000300e00002003d0060011100e0811900ea
:1028e000050007004f00e00002003b006000100000
:1028f000e0801800000006006022b80006022000f8
:102900000000d0008180d2000482d2008582d200f3
:102910000000a0000202520083825a00030031002e
:102920000202420083824a000000a1000603e9007f
:10293000f3ff3a00000006000800fa000000eb0078
:10294000203a880020002000303a88004000200013
:10295000000f7800e0ff2f001007980050002000c3
:102960002007980000532700300798001300070045
:1029700021142b008002eb00240020008e0178003f
:1029800092062000e04e2100c005070064004700c9
:1029900081142b008002eb002400200080017800cd
:1029a00092062000e04e2100b805070099070700b5
:1029b0000000eb000080fa00000006000000fa00b2
:1029c000b70d07000080fa00000006000000fa00c2
:1029d0001d0107000080fa00000006000800fa0050
:1029e000300798003e009000000f78001e0078002d
:1029f00010007800cf0d07006000b80010079800a5
:102a000021079800060037001e009000ae009000dd
:102a100061004000e08048001007980021079800fe
:102a20001e80e800100078006101b8001e009000d0
:102a3000ae009000800f5100818f5900f2ff3e00e0
:102a4000eaff37000600fa00200798006000200027
:102a5000b80d07006000b800008fbe00040037000a
:102a60001e00be0061004000e0804800008fbe00f4
:102a70001e01be00e0ff2f0001002000800f51006a
:102a8000818f5900f6ff3600f0ff37000a00fa0088
:102a9000200798003107980042079800c0012000e5
:102aa000500d0700000f78001e00e0003a003200d1
:102ab000d0e680000000e00003003a001e0078002d
:102ac000d0e68800130107003e009000e10f50009f
:102ad0000200360010002000300798009e007800a9
:102ae0000000eb00d00898001e007800be009000a7
:102af000310898001e007800ce0090004108980030
:102b00001e007800ae009000010878001e80e800ea
:102b1000570107009e0078006c80400054010700b8
:102b20001e0078009e007800410098001e0078008a
:102b30009e007800110898003e009000e50010000b
:102b40001e007800610098001e007800b008900018
:102b5000a0e38000808f5000030036001e00780044
:102b600030089000a0e388001e81e8001e00780075
:102b7000300890006a00b90080007800c0c72100ca
:102b80000080400082007800400107001000200013
:102b900010079800020037000080eb001007980033
:102ba0001e0090000080fa00000006000600fa00f7
:102bb0001007980021079800b1e380001e009000e4
:102bc000008f4000d0e680000080e800810107000f
:102bd000d0e680009e00780011009800b0e38000ed
:102be0009e0f100005003100d0e680008080e800d4
:102bf00030e580004701070004003700d0e6800080
:102c00008080e80020e58000420107002e0090004f
:102c10000000e00004003200d0e68000ec0040003c
:102c20002e0090003b0107000080fa000000060023
:102c30000400fa0029003700110280000002200081
:102c4000008070001002880040e580000000e00075
:102c50000400320070e580003000900010079800fa
:102c6000020037000000eb00100798009e00900063
:102c7000010f78009e0078006c804000550107002d
:102c800011028000f0fd2f0000806000100288001b
:102c90001e80e8004f0107001e007800b008900079
:102ca000a0e38000808f5000030036001e007800f3
:102cb00030089000a0e388001e81e8001e00780024
:102cc000300890006a00b90080007800c0c7210079
:102cd0000080400082007800ec00070040e58000a2
:102ce0000000e000d4ff3a000080fa000000060077
:102cf0000600fa004a070700c1e380000100500007
:102d0000d0e3880049003700b0e380000000e8000d
:102d1000b0e38800d0e380000000e900d0e3880041
:102d2000b0e380000000e00030003a0020e58000c1
:102d3000000f780030e5800020e588001e00780054
:102d400030e58800290037001e00900090009000b8
:102d5000b0e38000808f500034003e0011028000fc
:102d60000002200000807000100288001e00900009
:102d70000080e800170107001e0090002008900066
:102d80000000e000030032001e0090006c004000d4
:102d90001001070011028000f0fd2f00008060008c
:102da000100288001e009000b0089000a0e3800090
:102db000808f5000030036001e0090003008900005
:102dc000a0e388001e0090000081e8001e00900033
:102dd000300890006a00b90080007800c0c7210068
:102de0000080400082007800a800070020e58000f5
:102df000100078000000e0000500320020e58000af
:102e0000300090003000900020079800020037004a
:102e10000000eb00200798002e009000100798009b
:102e20001e0090000000e000c7ff3a00d0e38000e1
:102e30000000e000b4ff3a00b0e38000c0e3880087
:102e40000080fa00000006000200fa0078ff070088
:102e5000a7ff070006003700a0e380000000e000a5
:102e60002a003200a0e380000000e900a0e388000f
:102e7000a0e380006a00b90080007800c0c721008c
:102e800000804000100078000000e000f2ff3200f7
:102e9000a0e380006a00b90080007800c0c721006c
:102ea000008f40001e0078001000900090009000fd
:102eb0001e007800110098001e007800900090001d
:102ec0001e01780064004100808f500005003a0028
:102ed0001e00780010009000900090001e00780006
:102ee000110098001e007800100090003000900043
:102ef000d0e68800d0e6800010017800d0e680009f
:102f0000c0089000d0e68000020001000080fa00b6
:102f1000000006000200fa000000eb00000f78003d
:102f2000070037001e0078006a00b90080007800b2
:102f3000c0c7210000804000340007001e0fe800d9
:102f4000100020009e0f1000f6ff360000c921007f
:102f50002e000700a0c921002c00070080ca210014
:102f60002a00070000c9210020e58800a0c921002f
:102f700030e588000080fa00000006000800fa0032
:102f8000200798002e009000100078000000e0005c
:102f9000050032002e0090003000900030009000bc
:102fa00030079800020037000000eb00300798005f
:102fb0003e009000100798001e0090006c0040003a
:102fc000840007001e009000ec00400080ca210031
:102fd0002e0007001e009000b0089000d0e6800090
:102fe00030089000808f500003003900100020004e
:102ff000000f7800020037000000eb00000f78009f
:103000001e0078000080fa00000006000200fa00ae
:10301000000f78009e0078006480400080007800f7
:103020001e007800110098009e0078000080eb00e0
:10303000a00098009e007800648040008000780026
:103040001e007800310098009e00780064804000e7
:10305000800078001e007800410098009e007800f3
:103060000000eb00800878000080fa0000000600f5
:103070000200fa00000f78009e0078000000eb00cc
:10308000c00098000080fa00000006000600fa0068
:1030900010079800210798001e00900090009000f3
:1030a000010f78001e007800900090002e00900024
:1030b000110098001e009000900090002e009000db
:1030c000210098001e007800900090002e009000d3
:1030d000a0009800ae0090001e007800110098003b
:1030e000ae0090001e009000110098002e0090008d
:1030f0009e009000410098001e0090001000780093
:103100008000e8001e009000010878000080fa00ae
:10311000000006000800fa00200798003107980018
:103120003e009000100f78000080eb009e0f100012
:1031300004003a002e009000c00090001107980093
:103140000c0037002e00900064004000100798002b
:10315000030037001e0090009000900011079800b7
:103160001e00900010009000100078009e0f50008c
:10317000f8ff36001e009000900090003e00900086
:10318000110098003e009000900090003e009000da
:10319000a00098003e0090009e0090002100980042
:1031a000be0090001e009000110098003e009000ac
:1031b000ae009000410098002e00900010007800b2
:1031c0008000e8002e009000010878000080fa00de
:1031d000000006000400fa00100798001e0090008e
:1031e000900090001e00900020009000a000980029
:1031f0001e009000a00090001e00900010009000a3
:10320000900098001e00900040009000000f780091
:103210001e007800900090001e009000808f5000eb
:1032200004003a001e009000a00090001e007800ec
:10323000110098009e0090000000eb00c000980074
:103240001e007800100078008000e9001e00780061
:10325000010878000080fa00000006000a00fa0069
:1032600020079800310798002e0090000000e00031
:1032700042003200600220005a0b0700100798003d
:103280001e0090000000e0003c003200ae00900004
:103290003e0090000088b900000fe8001e00780092
:1032a000500b0700800078001e0090000108780095
:1032b0001e009000100078000000e0002d00320099
:1032c0001e00900010017800ae0090003e009000bb
:1032d0000088b900800041001e0090001100980095
:1032e0009e0090000000eb00e00898001e00900097
:1032f000900078001e009000210098001e009000b1
:10330000100178002e0090008000e9003e0090003f
:103310000088b900800041001e0090003100980034
:103320001e009000ae009000710898001e009000f2
:10333000be009000011098009e0090000080eb00fd
:10334000901098009e0090000080eb00a010980064
:103350001e009000680040002cff07001e00900037
:103360007200400029ff07001e00900040079800ef
:10337000040037001e009000400b07008000eb00a7
:10338000410798004e0090000080fa0000000600ff
:103390001000fa0030079800410798005207980083
:1033a000630798000000eb00000f78000000370072
:1033b000a10a07003e009000e00890003e00900047
:1033c00070089000808f5000140031006e01900052
:1033d000ce0090003e009000480107003e009000a3
:1033e000100890000000e000080032003e0090004d
:1033f0007200400034060700e10f500003003a005d
:10340000762f02000000000000000000940a070070
:1034100010002000700798003e0037005e0090000a
:103420000000e00004003a008d0a07000000eb00f5
:1034300070079800370037001e00e00004003a00d3
:103440000e80e8005d06070010002000000f7800e5
:10345000830a070010050700770a07003e00900066
:1034600010109000e10f400003003a00be009000f1
:103470000000eb00901098003e009000201090009b
:10348000e10f400003003a00be0090000000eb0096
:10349000a0109800720a0700ea0047000e80e800ba
:1034a000500607000000e00015003a003e009000c2
:1034b000c80107000000e0000d003200de009000af
:1034c0003e00900068004000d90507003e009000d3
:1034d0006e010700f60407000000e000b4ff3a00a8
:1034e000762f02000000000000000000b0ff37004f
:1034f0003e00900065010700ed040700acff3700b7
:103500003e00900061010700e90407000000eb00a5
:10351000700798007e0090000080fa00000006000e
:103520000c00fa0020079800310798004207980025
:10353000530798000000eb00000f78002e00900069
:10354000e00890002e00900070089000808f5000de
:103550001d0031005e019000be0090002e00900022
:10356000e60007002e00900020109000e10f4000c0
:103570000d003a002e009000100890000000e000be
:103580000e0032002e00900072004000ce050700b1
:103590000000e00009003200ce0090001000200082
:1035a00080087800050037002e0090002010900061
:1035b0008000e8002e0090002110980010002000ec
:1035c00010079800020037000000eb001007980079
:1035d0001e0090000080fa00000006001200fa00b1
:1035e00040079800510798006207980073079800f9
:1035f0000000eb0010079800000037000e0a0700db
:103600004e009000600890000000e0002e003200a4
:103610004e009000b0009000010f7800de00900096
:103620004e009000f90007007e0090000000e000ce
:1036300012003a004e009000600890008000e900ff
:103640004e009000610898004e00900040009000ed
:103650000000e000180032004e00900068004000ba
:1036600099050700e10f500013003a00762f020081
:1036700000000000000000000f0037004e00900026
:103680009e007800310098004e00900010089000d5
:103690000000e000080032004e0090007200400080
:1036a000890507000000e00003003200762f0200c9
:1036b0000000000000000000e909070010002000e1
:1036c000000f98003f0037006e0090000000e000ff
:1036d00004003a00e20907008000eb00010f9800a7
:1036e000380037001e0090000000e00004003a009f
:1036f00064004700b1050700100020001007980083
:10370000d709070064040700cb0907004e009000aa
:1037100010109000e10f400003003a00ce0090002e
:103720000000eb00901098004e00900020109000d8
:10373000e10f400003003a00ce0090000000eb00d3
:10374000a0109800c6090700ec004700640047007d
:10375000a40507000000e00015003a004e009000ac
:10376000000107000000e0000d003200ee009000b4
:103770004e009000720040002d0507004e009000a2
:10378000c20007004a0407000000e0009bff3a0067
:10379000762f0200000000000000000097ff3700b5
:1037a0004e009000b90007004104070093ff370066
:1037b0004e009000b50007003d0407000000eb003c
:1037c000000f98000e0890000080fa00000006002c
:1037d0000a00fa0020079800310798004207980075
:1037e0000000eb00000f78002e00900060089000b1
:1037f0000000e00021003200be0090002e0090008a
:10380000820007002e009000600890008000e90010
:103810002e009000610898002e009000101090007b
:10382000e10f40000d003a002e0090004000900093
:103830000000e0000e0032002e0090006800400002
:10384000210507000000e00009003200ce009000d2
:103850001000200080087800050037002e0090003e
:10386000101090008000e8002e00900011109800c9
:103870001000200010079800020037000000eb0045
:10388000100798001e0090000080fa00000006005b
:103890000400fa0010079800670907001e00900056
:1038a000e0089000010f78006d0907001e00780005
:1038b0000080fa00000006000400fa0010079800db
:1038c0001e009000e0089000010f78001e007800b4
:1038d0000080fa00000006000200fa00000f7800e5
:1038e0001e00780010007800e40907001e00780030
:1038f000e20907000080fa00000006000600fa0056
:10390000000f780011079800220798001e00780029
:10391000001090000000e000350032002e00900002
:103920000000e00018003a001e007800001190002e
:103930001e007800200090009e009000befb070053
:103940001e007800a00090001e007800001090007b
:10395000808040001e007800210098001e00780042
:10396000a00090001e00780010009000808f500092
:103970001f0039001e007800900078001e007800bb
:10398000210098001a0037001e00780000119000f6
:103990001e007800300090009e009000a6fb0700fb
:1039a0001e007800b00090001e007800001090000b
:1039b000808050001e007800310098001e007800c2
:1039c000b00090001e00780010007800808f50003a
:1039d000070031001e007800900090001e00780063
:1039e00000109000808050001e0078003100980088
:1039f0001e007800600890008000e8001e0078003b
:103a0000610898000080fa00000006000400fa0037
:103a1000000f7800110798001e0078001000780051
:103a20000000e000170032001e007800b000900097
:103a30001e00780000109000808040001e0078007a
:103a4000310098001e007800b00090001e00780041
:103a500010009000808f5000040039001e00780094
:103a6000900078001e007800310098001e00780059
:103a7000001190001e007800b00090001e00900021
:103a80006dfb07000080fa00000006000200fa004b
:103a9000000f7800e80807000f0037001e007800cc
:103aa000100890000000e0000f0032009e00780037
:103ab00072804000840407000000e0000100320032
:103ac000fc0407001e007800201090008000e90030
:103ad0001e007800211098001e0078002010900031
:103ae0000000e000edff3c009e0078000080eb004d
:103af000a0109800da080700cf0807000f00370071
:103b00001e007800400090000000e0000f0032002e
:103b10009e007800688040006b0407000000e00011
:103b200001003200e30407001e007800101090002e
:103b30008000e9001e007800111098001e00780037
:103b4000101090000000e000edff3c009e007800a7
:103b50000080eb0090109800c10807000080fa0078
:103b6000000006000400fa0010079800b2080700e1
:103b70001e009000e00890000000eb00000f7800ad
:103b80000100e00002003a0010002000000f780061
:103b9000b30807001e0078000080fa00000006004d
:103ba0000400fa00100798001e009000e008900042
:103bb0000000eb00000f78000100e00002003a0076
:103bc00010002000000f78001e0078000080fa002e
:103bd000000006000400fa0010079800960807008d
:103be0001e009000600990001e009000f0089000f8
:103bf0000000eb00000f7800810f510002003a0036
:103c000010002000000f7800950807001e007800c3
:103c10000080fa00000006000400fa001007980077
:103c20001e009000600990001e009000f0089000b7
:103c30000000eb00000f7800810f510002003a00f5
:103c400010002000000f78001e0078000080fa00ad
:103c5000000006000a00fa001007980021079800eb
:103c600032079800110280000002200000807000de
:103c7000100288001e009000d6ff07000000e00040
:103c8000150032003e0090000000e0000b00320002
:103c90001e009000e80040003e009000c3fb0700bb
:103ca00011028000f0fd2f000080600010028800eb
:103cb000c0ff2f004007980030003700100280003e
:103cc000f1fd2f0001006000100288000000eb00f1
:103cd000400798002900370011028000f0fd2f00f6
:103ce00000806000100288000000000011028000c7
:103cf0000002200000807000100288001e0090006a
:103d0000e00890001e00900070089000808f500026
:103d1000120031000001eb00ae0090001e00900088
:103d2000f6fe070010002000000f78001e00900033
:103d3000100890000000e0000a0032001e00900011
:103d4000720040008dfc07000000e000050032001a
:103d5000b0ff2f00000f7800020037000000eb00da
:103d6000000f780010028000f1fd2f0001006000bc
:103d7000100288001e007800400798004e00900056
:103d80000080fa00000006000a00fa001007980000
:103d900021079800320798001102800000022000dd
:103da00000807000100288001e00900060089000e3
:103db0000000e00015003a003e0090000000e00026
:103dc0000b0032001e009000f20040003e00900008
:103dd00076fb070011028000f0fd2f0000806000dc
:103de00010028800c0ff2f004007980046003700ef
:103df00010028000f1fd2f00010060001002880019
:103e00000000eb00400798003f00370011028000df
:103e1000f0fd2f000080600010028800000000000c
:103e20001102800000022000008070001002880053
:103e30001e009000600890000000e0002a003200a0
:103e40001e009000b00090001e0090000010900036
:103e5000808040001e009000310098001e009000fd
:103e6000b00090001e00900010009000808f500065
:103e7000040039001e009000900078001e009000a1
:103e8000310098001e009000600890008000e9005a
:103e90001e009000610898001e0090000011900024
:103ea0001e009000b00090002e00900062fa070003
:103eb00010002000000f78001e00900040009000cd
:103ec0000000e0000a0032001e0090006800400080
:103ed0002afc07000000e00005003200b0ff2f00c0
:103ee000000f7800020037000000eb00000f7800a0
:103ef00010028000f1fd2f00010060001002880018
:103f00001e007800400798004e0090000080fa00e4
:103f1000000006000800fa00000f78001107980062
:103f2000220798001e007800e00890001e0078002c
:103f300070089000808f5000130031000001eb00ea
:103f40009e0090001e0078006cfe07002e0090007e
:103f50000000e0000c003a001e00780010089000fd
:103f60000000e000080032009e00780072804000ef
:103f700002fc07000000e0000300320010002000f7
:103f80003007980002003700ae009000310798001b
:103f90003e0090000080fa00000006000800fa00d1
:103fa0001007980021079800320798001e00900023
:103fb000600890000000e0002f0032001e0090001a
:103fc000b00090001e009000001090008080400023
:103fd0001e009000310098001e009000b00090007c
:103fe0001e00900010009000808f500004003900e7
:103ff0001e009000900078001e0090003100980094
:104000001e009000600890008000e9001e009000f3
:10401000610898001e009000001190001e009000a2
:10402000b00090002e00900003fa07003e009000c0
:10403000100078000000e0000c003a001e00900024
:10404000400090000000e000080032001e009000d8
:1040500068004000c9fb07000000e00003003200d8
:10406000be009000100020008008780010002000a2
:10407000000f7800020037000000eb00000f78000e
:104080001e0078000080fa00000006001200fa000e
:10409000300798004107980052079800630798007e
:1040a00074079800050f98005e009000d503070084
:1040b000100798001e0090000000e0004c00320045
:1040c0007e019000ce0090001e0090008903070042
:1040d0001e009000c0089000010f78001e009000a4
:1040e000c00890005e00900000004000008040008a
:1040f0008080e9001e009000211898006e01900059
:10410000be0090001e007800ca06070080007800fc
:104110001e009000010878004707070010e08000ab
:104120000000e80010e0880010e08000e10f50007f
:1041300004003a001e009000e0e6880092030700a9
:104140000a00370050e080000000e00007003a005d
:10415000e0e68000b00890007e009000808f500064
:1041600002003e009e009000e1e688001e009000e4
:10417000b008900030e08000808f500003003600cf
:104180001e0090003008900030e08800a0e0800021
:104190000000e800a0e088001e009000b008900039
:1041a00040e08000808f5000030036001e00900029
:1041b0003008900040e088001e0090000081e80078
:1041c0001e009000300890006a00b900800078005e
:1041d00060c121000080400082007800abfb070036
:1041e00010002000200798001d070700020037007c
:1041f0000080eb00200798002e009000e10f500097
:1042000011003a000e0890000000e00003003200a8
:104210000e0890009e0090000108780050e0800099
:104220000000e00008003200e0e68000b0089000e6
:104230007e009000808f500003003100762f020036
:1042400000000000000000002e0090000080fa0036
:10425000000006000a00fa003007980041079800a5
:104260000000eb00000f78008b0107003e0090007b
:10427000900078004e0090000080400020079800d9
:104280003e0090009000780020e08000808f500079
:104290000c0036003e009000900078002e00900048
:1042a000808f50001200360021e080002e00900028
:1042b000810f50000e00360010002000000f780023
:1042c0000b0037003e009000900078002e00900018
:1042d000808f500004003e0021e080002e009000fe
:1042e000810f50000200360010002000000f7800ff
:1042f0003e009000ae009000010878001e00e00033
:1043000013003200e0e680000080e800b1fb070007
:10431000e0e68000ae0090001100980021e08000ef
:104320002e009000810f500005003100e0e6800073
:104330008080e800f0e2800076fb07000400370090
:10434000e0e680008080e800e0e2800071fb07008a
:1043500057010700100798001e0090000000e000c1
:1043600003003a00762f0200000000000000000069
:104370000080fa00000006000600fa0020079800fe
:104380000000eb00000f78002e0090000000e0001d
:104390001a0032004001070021e080002e0090004a
:1043a0000080400010079800e0e680000080e800f0
:1043b00088fb0700e0e680009e0090001100980056
:1043c00021e080001e009000810f500005003100a8
:1043d000e0e680008080e800f0e280004dfb07000e
:1043e00004003700e0e680008080e800e0e2800022
:1043f00048fb07002e010700000f78001e00e000b8
:1044000003003a00762f02000000000000000000c8
:104410000080fa00000006000c00fa003007980047
:10442000410798000000eb00000f78004e0090005c
:10443000e40f5000020036004000200040079800c2
:104440007d060700e1e680003e009000810f5000ed
:1044500002003a000000eb00300798003e00900098
:104460000000e00003003a00e0e6800050079800fa
:1044700002003700be009000510798005e009000d7
:10448000200798002e009000b008900011079800b7
:104490009e0090004e009000808f50003a00320045
:1044a000ce0090001e009000808f50000600360065
:1044b0003e0090000000e0000800320010002000e4
:1044c000000f7800050037003e0090000000e0007b
:1044d00002003a0010002000000f78002e0090002b
:1044e000ce009000310898004e009000e5001000ca
:1044f0002e009000610098002e0090005001900066
:104500001e0090006a00b9008000780060c12100a0
:1045100000804000800f510015003a002e009000ee
:104520000080e8002bfb07002e009000b0089000f0
:1045300040e08000808f5000030036002e00900085
:104540003008900040e088002e0090000081e800d4
:104550002e009000300890006a00b90080007800ba
:1045600060c121000080400082007800c7fa070087
:10457000100020009e0f100003003a00762f02006a
:104580000000000000000000350607000080fa006f
:10459000000006000600fa00100798002606070033
:1045a000e1e680001e009000810f500002003a00fa
:1045b0000000eb00100798001e0090000000e000d3
:1045c00003003a00e0e68000200798000200370070
:1045d0009e009000210798002e009000000f7800a8
:1045e0001e80e800fbfa07001e00780020089000fb
:1045f0000000e000030032009e0078006c80400064
:10460000f4fa07009e80e800a0c621009ffa070088
:10461000130607001e0090000000e00003003a00af
:10462000762f020000000000000000000080fa0069
:10463000000006000600fa00200798000000eb00ca
:10464000100798002e009000000f78001e007800e0
:10465000d0009000a0c62100808f50000b003a00cf
:104660001e007800a008900000c62100808f500036
:10467000060032001e007800200890000000e000d4
:1046800002003a0010002000100798001e00900061
:104690000080fa00000006000400fa0010079800ed
:1046a0001e009000000f78001e00e0002500320080
:1046b000e0e680009e0f100022003200de050700b9
:1046c0001e007800dbff0700e10f50001c003a00dd
:1046d0001e80e800bffa07001e007800b0089000b6
:1046e00040e08000808f5000030036001e007800fc
:1046f0003008900040e088001e81e8001e0078002d
:10470000300890006a00b9008000780060c1210084
:1047100000804000820078005cfa07001e007800ec
:10472000b0089000e0e6800030089000808f5000d4
:1047300003003900762f0200000000000000000096
:10474000c70507000080fa00000006000600fa0016
:10475000200798000000eb00100798002e00900042
:10476000000f78001e007800b2ff0700e10f500034
:1047700025003a0060e080000000e0001e003a00e2
:104780001e00780030099000e0e68000b00890003c
:104790000000eb0010079800810f51000200390063
:1047a00010002000100798001e80e80089fa07001a
:1047b0001e007800b008900040e08000808f50001c
:1047c000030036001e0078003008900040e08800aa
:1047d0001e81e8001e007800300890006a00b900d1
:1047e0008000780060c121000080400082007800d5
:1047f00026fa0700040037001e007800ec00400095
:1048000000c6210021fa07001e0090000080fa0077
:10481000000006000200fa0061152b008002eb0088
:104820000002eb008001eb0092062000407622009f
:1048300016fe0700000f7800100020009e0f1000e9
:1048400009003a0011028000000220000080700080
:10485000100288001000200050e088000000eb00eb
:1048600020e08800380507000080fa0000000600fc
:104870000000fa0011028000000220000080700099
:10488000100288000000eb0050e08800500507008f
:104890000080fa00000006000000fa0060e08000de
:1048a0000000e80060e088000080fa0000000600d8
:1048b0000800fa000000eb00100798005e050700f2
:1048c00060e080000000e90060e0880060e08000b7
:1048d0000000e0004e003a0010e080000000e00020
:1048e0004b0032000000eb00000f78002000370082
:1048f000ae0090006c80400036fa0700ae009000d9
:104900000180e80033fa07002e009000b008900004
:1049100040e08000808f500003003600ae00900021
:104920003108900040e088002e0090000081e800ef
:10493000ae009000310890006a00b9008000780055
:1049400060c121000080400082007800cff907009c
:104950002e009000b0089000e0e680003008900043
:10496000808f50000200390010002000000f7800f6
:1049700000e380000000e0000400320030e380002b
:104980003000900030079800020037008000eb00f4
:10499000310798003e00900020079800ae0090007c
:1049a0000100e000d2ff3a0070e080000000e0006b
:1049b0000a003200040037002500070070e0800084
:1049c0000000e90070e0880070e080000000e00076
:1049d000f9ff3a0010002000000f780010002000be
:1049e0009e0f10000300320080e08000e10f5000b5
:1049f00007003a0010002000100798000000eb00ac
:104a000080e08800762f0200000000000000000017
:104a1000130507001e0090000080fa000000060049
:104a20000200fa000405070020e08000000f780073
:104a30000b0507001e0078000080fa000000060049
:104a40000000fa0010e080000080fa00000006007c
:104a50000600fa0060e080000000e00042003a003a
:104a600020e080000000e80020e0880020e08000d6
:104a70000000e0002b003a00e0e28000000f780028
:104a8000f0e28000e0e288009e007800f1e2880019
:104a900090e080000000e80090e0880021003700ee
:104aa0001e0090009000900020e08000808f500059
:104ab00030003e009e0090000180e800c5f907002c
:104ac0009e009000210890000000e00003003200ea
:104ad0009e0090006c804000bef907001e00900010
:104ae000b008900040e08000808f50000300360046
:104af0009e0090003108900040e088001e00900069
:104b00000081e8009e009000310890006a00b90022
:104b10008000780060c121000080400082007800a1
:104b20005af90700e0e28000100078000000e00081
:104b300005003200e0e2800030009000300090007c
:104b400020079800020037000000eb0020079800c3
:104b5000ae009000110798001e0090000000e000d9
:104b6000cfff3a000300370070e080000000e8004b
:104b700070e088000080fa00000006000200fa00e1
:104b800060e080000000e00006003200100020001d
:104b900080e088002400370040e080000000e90049
:104ba00040e0880040e080006a00b90080007800a2
:104bb00060c1210000804000100078000000e0008b
:104bc000f5ff320040e080006a00b9008000780004
:104bd00060c12100008f40001e007800100090008e
:104be000900090001e007800110098001e007800d0
:104bf000900090001e01780064004100808f5000fa
:104c000005003a001e00780010009000900090000f
:104c10001e007800110098001e007800100090001f
:104c200030009000e0e688000080fa0000000600f6
:104c30000600fa001007980021079800e0e68000bf
:104c4000ec0040001e00900032f90700e0e6800012
:104c50000080e8005ff907002e009000e10f40009f
:104c600005003a00e0e680008080e800a0c6210050
:104c700006f907001200370021e080002e009000a6
:104c8000008f4000e0e680009e0078001100980050
:104c900020e080009e0f100005003100e0e680005b
:104ca0008080e800f0e280001af907000400370075
:104cb000e0e680008080e800e0e2800015f907006f
:104cc0000080fa00000006000800fa0020079800a3
:104cd0002e009000100078000000e0000500320077
:104ce0002e009000300090003000900030079800b7
:104cf000020037000000eb00300798003e009000f3
:104d0000100798001e0090006c00400031f9070069
:104d100060e080000000e00016003a001e009000f5
:104d20000080e8002bf907001e009000b0089000fa
:104d300040e08000808f5000030036001e0090008d
:104d40003008900040e088001e0090000081e800dc
:104d50001e009000300890006a00b90080007800c2
:104d600060c121000080400082007800c7f8070081
:104d7000040037001e009000ec00400000c6210037
:104d8000c2f807001e009000b0089000e0e6800026
:104d900030089000808f5000030039001000200080
:104da000000f7800020037000000eb00000f7800d1
:104db0001e0078000080fa00000006000200fa00e1
:104dc000000f780091e080001e0078000108780054
:104dd00021e080001e007800110098000080fa0099
:104de000000006000600fa0010079800210798004e
:104df000110407002e00900010007800e10f400021
:104e000003003a000000eb00000f78002500370097
:104e10001e0090009000780090e08000808f50008d
:104e2000080032001e0090009000900020e08000fa
:104e3000808f500003003e0010002000000f78001b
:104e40001800370021e080001e0090001000900044
:104e5000808050002e00900010007800808f50005d
:104e60000e0031002e0090001001780021e080003b
:104e70001e00900010009000008050008000510043
:104e80002e009000010878001e009000cbff070064
:104e90000000eb00000f7800020037001000200037
:104ea000000f7800ee0307001e0078000080fa0073
:104eb000000006000000fa001000200080e08800da
:104ec0000080fa00000006000200fa00000f7800df
:104ed00049000700b0e08000e10f500003003600f9
:104ee000762f02000000000000000000b7f6070067
:104ef000f7ff37000600fa00000f7800110798004e
:104f0000220798009e0090001e0178007a00410060
:104f1000920120004ff607009e0078000040eb0051
:104f2000a07098002e009000e40f500002003600a0
:104f300040002000200798001e007800ae0090007e
:104f4000310898001e80e80049f807001e0178002b
:104f50006c00410046f807001e0078009e007800b3
:104f6000410098002e009000e50010001e0078001f
:104f7000610098001e0078001e0178001208980059
:104f80000080fa00000006000200fa000000eb00ba
:104f9000000f7800070037001e0078006a00b90093
:104fa0008000780060c121000080400017f80700f1
:104fb0001e0fe800400020009e0f1000f6ff360094
:104fc00080c4210011f8070020c521000ff8070058
:104fd00000c621000df80700a0c621000bf807004d
:104fe00080c42100e0e2880020c52100f0e28800b2
:104ff0000080fa00000006000000fa000080fa00bd
:10500000000006000400fa0010079800600320006a
:10501000f4030700000f78001e00e00016003200c5
:105020001e00900000004000ee03070080007800a2
:105030001e007800410898001e007800400890008b
:105040000000e00005003a001e0078000b04070095
:105050000000eb00000f7800070037001e009000f2
:1050600000004000000178001e0078004008900019
:10507000510a20000af607001e0078000080fa009e
:10508000000006001600fa00200f98001000200013
:10509000300798005000200020079800803e200034
:1050a000100798000000eb00000f7800600020005f
:1050b000cc030700100f9800210020003e00900054
:1050c00066f80700800078001e089000010878004c
:1050d0001e0890009e009000110098009e0890000d
:1050e00020cb2100a000980060002000bd03070035
:1050f000000f98001e089000900078000e089000a5
:10510000010878000e0890009e00780011009800b9
:105110008e08900080cb2100a000980041102b0049
:105120008002eb002e0a90009e099000920620005b
:1051300060992200d5fb0700c1102b008002eb0014
:105140000002eb008e09900092062000609522007c
:10515000cefb070060002000a20307007007980044
:10516000210020003e0090003cf8070080007800fd
:105170007e009000010878007e0090009e0078007c
:1051800011009800a1cb21007e0090002100980022
:105190006000200093030700600798007e009000e5
:1051a000900078006e009000010878006e0090007a
:1051b0009e0090001100980041cb21006e009000ed
:1051c0002100980041112b008002eb000002eb004f
:1051d000fe0190009206200060992200abfb0700c0
:1051e000c1112b008002eb002e0a9000ee0190000e
:1051f0009206200060952200a4fb070060002000ba
:105200007803070050079800210020002e0090002e
:1052100012f80700800078005e0090000108780016
:105220005e0090009e00900011009800c1cb21000c
:105230005e009000210098006000200069030700d4
:10524000400798005e009000900078004e009000ab
:10525000010878004e0090009e0090001100980018
:1052600061cb21004e0090002100980041122b00dc
:105270008002eb000002eb00de01900092062000ad
:105280006095220081fb0700c1122b008002eb0019
:105290000002eb00ce0190009206200060992200ef
:1052a0007afb07000080fa00000006000800fa0000
:1052b000300798000000eb00200798000000eb008a
:1052c000000f78003e0090001007980000003700a3
:1052d0001e009000100190001e0090001000780049
:1052e000e40047008001eb0029f80700e10f5000bf
:1052f0000300320010002000000f7800f4ff370098
:105300001e00e00005003a001e009000a000900082
:10531000110078000000e800800878002e0090005e
:105320000000e80020079800e9ff37000a00fa00b3
:10533000400798000000eb00200798000000eb00f9
:10534000000f78004e009000100798000000370012
:105350001e009000100190001e00900010007800c8
:10536000e60047008001eb009cf80700e10f5000c9
:10537000f7ff3a00be0090002e009000808f500092
:10538000050032003e009000200798001000200029
:10539000000f7800eeff37001e00e00005003a0025
:1053a0001e009000a0009000110078000000e800ae
:1053b000800878002e0090000000e8002007980088
:1053c000e3ff37000400fa001000200010079800e7
:1053d0000000eb00000f7800310037001e0078005d
:1053e0008000400020cb21000080400010017800a8
:1053f0001e0078008000400040cc2100008040006a
:1054000010007800800f510002003a000000eb000d
:10541000100798001e0178001e00780080004000f0
:1054200020cb2100008040009001780082004100e4
:1054300040cc210000804000030878001e00780066
:105440008000400080cb21000080400010017800e7
:105450001e00780080004000e0cb2100008040006a
:1054600010007800800f510002003a000000eb00ad
:10547000100798001e0178001e0078008000400090
:1054800080cb210000804000900178008200410024
:10549000e0cb210000804000030878001e0fe800e8
:1054a000200020009e0f1000ccff34001e00900052
:1054b0000080fa00000006000000fa002100200031
:1054c0005000200065f70700a0e6880041132b007c
:1054d0008002eb00340020008001eb0092062000e7
:1054e00060a82200e9fa0700b1132b0065cd210066
:1054f000240020008001eb009206200060c82200fa
:10550000e2fa07000080fa00000006000c00fa0032
:10551000500798000000eb0030079800200037008b
:10552000be009000a00020000100dd0010079800e0
:105530003bfd070020079800a0e68000e800470038
:105540008001eb001e01900024f807000000e0003d
:10555000020032001000200070e6880030fd0700d5
:10556000ae009000010f50001e0090009e0f100032
:10557000020031001000200070e688001e0090003c
:105580006f0040009e0f500002003100100020000c
:1055900070e688003e0090000000e80030079800a8
:1055a0003e009000e40f5000ddff34000000eb00ef
:1055b000300798000c003700a0e68000e6004700a6
:1055c0008001eb000001eb0071f70700e10f5000d4
:1055d000020032001000200070e688003e009000bb
:1055e0000000e800300798003e009000e40f5000f3
:1055f000f1ff34000000eb00300798002000370076
:10560000be009000a00020000100dd0010079800ff
:1056100003fd070020079800a0e68000e600470091
:105620008001eb001e01900059f707000000e00028
:10563000020032001000200070e68800f8fc07002d
:10564000ae009000010f50001e0090009e0f100051
:10565000020031001000200070e688001e0090005b
:105660006f0040009e0f500002003100100020002b
:1056700070e688003e0090000000e80030079800c7
:105680003e009000e40f5000ddff34000000eb000e
:10569000c0e68800b0e68000fffb0700020037008c
:1056a0004001200034fb0700c1e6800050052000c7
:1056b000808f5000faff3a00400120002efb0700c7
:1056c0000000eb00c0e688000000eb003007980007
:1056d00027003700a0e68000e80047008001eb00cb
:1056e0000001eb00bdf70700e10f5000020032009f
:1056f0001000200070e68800a0e68000e600470069
:105700008001eb000001eb0021f70700e10f5000e2
:10571000020032001000200070e68800c1e6800020
:1057200050052000808f500002003a001000200039
:1057300070e68800b0e680005100200036fb0700cc
:10574000c1e6800050052000808f500002003a0022
:105750001000200070e68800b0e6800021002000e4
:105760002dfb07003e0090000000e8003007980085
:105770003e009000e40f5000d6ff340002003700d6
:1057800040012000fcfa0700c1e68000500520001f
:10579000808f5000faff3a0040012000f6fa07001f
:1057a0000000eb00c0e688000000eb003007980026
:1057b0000c003700a0e68000e80047008001eb0005
:1057c0000001eb0085f70700e10f500002003200f6
:1057d0001000200070e688003e0090000000e80005
:1057e000300798003e009000e40f5000f1ff3400b5
:1057f000b0e68000a8fb070002003700400120004f
:10580000ddfa0700c1e6800050052000808f5000bf
:10581000faff3a0040012000d7fa07000000eb0031
:10582000c0e688000000eb00300798002700370032
:10583000a0e68000e60047008001eb000001eb00dd
:10584000d3f60700e10f50000200320010002000e4
:1058500070e68800a0e68000e80047008001eb00c9
:105860000001eb005df70700e10f5000020032007d
:105870001000200070e68800c1e68000500520007e
:10588000808f500002003a001000200070e688006f
:10589000b0e6800051002000dffa0700c1e680007a
:1058a00050052000808f500002003a0010002000b8
:1058b00070e68800b0e6800021002000d6fa0700dc
:1058c0003e0090000000e800300798003e00900085
:1058d000e40f5000d6ff34000200370040012000e2
:1058e000a5fa0700c1e6800050052000808f500017
:1058f000faff3a00400120009ffa070050e68000be
:105900000000e80050e6880002ff37000800fa00b7
:10591000300798000000eb001efb070040fc07006a
:10592000100798000000eb002007980050052000a9
:10593000c0e68800a0e68000e40047008001eb009c
:10594000f20a200092f607000000e0000200320098
:105950001000200070e6880031fc07009e009000d7
:10596000010f5000e00a20009e0f100002003e00d0
:105970001000200070e68800e00b20009e0f100051
:10598000020036001000200070e68800500520005c
:10599000c0e688000000eb00fefa070020fc0700cc
:1059a0001007980050052000c0e68800a0e680009f
:1059b000e40047008001eb00f20a200007f707002f
:1059c0000000e000020032001000200070e68800b5
:1059d00013fc07009e009000010f5000e00a200019
:1059e0009e0f100002003e001000200070e68800ac
:1059f000e00b20009e0f1000020036001000200077
:105a000070e6880050052000c0e6880060e680004f
:105a10000000e80060e68800beff37000200fa00e0
:105a200010002000000f780051e6800090e6800012
:105a3000808f500002003a000000eb00000f780059
:105a400061e6800080e68000808f500002003a000e
:105a50000000eb00000f780070e68000e10f5000be
:105a600002003a000000eb00000f780060e68000c2
:105a700080e6880050e6800090e688001e007800ee
:105a80000080fa00000006000400fa0010079800e9
:105a90000000eb00000f78000d0037001e007800ba
:105aa0000000400080007800e0cd21000080400030
:105ab000e1142b008002eb001e02900080017800b0
:105ac0009206200000d7220070f907001e0fe800a0
:105ad0001e00e000f1ff34000080fa000000060024
:105ae0000a00fa00400798000000eb001007980039
:105af0004e009000000f780000003700b007200033
:105b00000100200020079800310798002e01900026
:105b1000be019000704429003100200002004000c6
:105b20008380480020079800310798002e039000da
:105b3000be039000d0ff2f000032b8000080eb00c1
:105b400000b0b9000501780000014100d0ff2f002e
:105b500000b8b900000141008202780024079800d3
:105b6000350798002e009000be00900072002000c3
:105b70000300200051f30700200798003107980028
:105b80002e019000be019000b0712700e1ff2f00b0
:105b9000800f5100818f5900020032001000200058
:105ba000100798001e0090000000e000d3ff3a00ac
:105bb000a10007009e0078001000200080087800f7
:105bc000a7000700cdff37000400fa0010002000f6
:105bd000100798000000eb00000f7800100037005d
:105be0001e00780080004000e0cd210000804000d1
:105bf000100078000000e00002003a000000eb0016
:105c0000100798001e00780080004000e0cd2100c1
:105c1000808040000000eb00800878001e0fe80044
:105c20001e00e000eeff34001e0090000080fa002d
:105c3000000006000a00fa002007980031079800cb
:105c4000420798003e009000100798002e00900038
:105c50009e009000010878002e0090000080e8006f
:105c600020079800ae0090000000eb00800878004c
:105c70002e0090000080e80020079800ae00900001
:105c80000000eb00800878002e0090000080e80003
:105c9000200798004e009000800078002e009000b1
:105ca000010878002e0090000080e800200798008e
:105cb0000000eb00000f78000a0037001e0078009b
:105cc000e10c2b0000004000e08078002e009000e6
:105cd000010878002e0090000080e800200798005e
:105ce0001e0fe8001e007800fa0f5000f3ff360088
:105cf000210280002e009000010878002e00900004
:105d00000080e8002007980034c0bf008080fb00be
:105d10002e009000010878002e0090000080e8001e
:105d200020079800ae0090000000eb00800878008b
:105d30002e0090000080e800200798002e009000c0
:105d40000080fa00000006000000fa0023000700af
:105d5000e0e68000900778004f00780000e78800b8
:105d60003400f9004400f9004000f9003e00f90059
:105d70003c00f9003a00f9003800f9002c00f90065
:105d80002a00f9002800f9002600f9002400f90093
:105d90002200f9003200f9003600f9004f077800c0
:105da0004f06be004f05be004f04be004f03be00ad
:105db0004f02be004f01be004f00be004200f9007e
:105dc00000000600100020000080fa00000006001d
:105dd0000000fa000080fa00000006000400fa004b
:105de000c0d4210001002000008fbe000000eb00a5
:105df000200888000000eb00000888001e007800e2
:105e000010088800510a200091407800f0c8b300c3
:105e100000c060000044a000a5e0b7008460a900b5
:105e20009460a8000481a80004a1a90005e1a800cd
:105e30000080fa00000006000000fa001102800055
:105e400000022000008070001002880000e780003f
:105e50000000e80000e788000080fa00000006006b
:105e60000000fa0000e780000000e90000e7880079
:105e700000e780000000e00004003a00100280000b
:105e8000f1fd2f0001006000100288000080fa0080
:105e9000000006003600f800809fbe00829fbe0012
:105ea000849fbe00869fbe003400f80000c0b3008f
:105eb000a00188000000fa008460a900e4fa07004d
:105ec000762f020000000000000000000080fa00b1
:105ed0003400f9004f03be004f02be004f01be0068
:105ee0004f00be003600f900004006004200f800f6
:105ef000801f78000002200010028800811f7800b7
:105f0000829fbe00849fbe00869fbe00889fbe0009
:105f10008a9fbe008c9fbe008e1f78003600f8005e
:105f20003200f8002200f8002400f8002600f800f3
:105f30002800f8002a00f8002c00f8003800f800cb
:105f40003a00f8003c00f8003e00f8004000f8007d
:105f50004400f8003400f80000e78000801f78005b
:105f6000e0e680000f087800be2502000000000077
:105f7000e0e68000900778004f00780000e7880096
:105f80003400f9004400f9004000f9003e00f90037
:105f90003c00f9003a00f9003800f9002c00f90043
:105fa0002a00f9002800f9002600f9002400f90071
:105fb0002200f9003200f9003600f9004f0778009e
:105fc0004f06be004f05be004f04be004f03be008b
:105fd0004f02be004f01be004f00be004200f9005c
:105fe000000006000400fa00100798000000eb0013
:105ff000000f78001e009000610060000004e000c7
:10600000050032009e009000e0ff2f00008060003d
:106010000080e800100798001ffa07000140800088
:106020001e00900080804000f03f2100808f5000d3
:106030000e003e00014080001e0090008080400065
:1060400000408000808f5000080036000040800033
:106050008000780020802000008f400001408000f8
:106060001e009000008040000040880010fa0700e9
:106070001e0078000080fa00000006000200fa000e
:10608000000f78000080fa00000006000000fa000f
:106090000000eb00004088000080fa0000000600cd
:1060a0000000fa000000eb00901688000000eb00f2
:1060b000a01688000000eb0010e788000080fa00be
:1060c000000006000600fa0010079800210798005b
:1060d0009e009000100020000100dd00000f7800fd
:1060e0002e0090000000e0000800320052ff070080
:1060f00010e780001e00700010e7880010e78000a5
:10610000a016880056ff0700080037004aff070066
:106110009e80ea0010e780000080600010e78800a1
:1061200010e78000a01688004dff07000080fa00ed
:10613000000006000400fa00100798009e0090007e
:10614000100020000100dd00000f78003aff07007a
:1061500010e780001e0060000000e0000700320031
:106160009e80ea0010e780000080600010e7880051
:1061700010e78000a01688000500370010e78000b7
:106180001e00700010e7880010e78000a01688004d
:0c61900033ff07000080fa00000006004a
:020000040000fa
:0200000401f009
:04000c00fbff0000f6
:020000040000fa
:0200000401f009
:04001000b9ff000034
:020000040000fa
:0200000401f009
:040014007fff00006a
:020000040000fa
:0200000401f009
:04001800ffff0000e6
:020000040000fa
:100008002a3200002a3200002a3200002a32000078
:100018002a3200002a3200002a3200002a32000068
:100028002a3200002a3200002a3200004a2f00003b
:100038002a3200002a3200002a3200002a32000048
:100048002a3200002a3200002a3200002a32000038
:100058002a3200002a3200002a3200002a32000028
:100068002a3200002a3200002a3200002a32000018
:100078002a3200002a3200002a3200002a32000008
:100088002a3200002a3200002a3200002a320000f8
:100098002a3200002a3200002a3200002a320000e8
:1000a8002a3200002a3200002a3200002a320000d8
:1000b8002a3200002a3200002a3200002a320000c8
:1000c8002a3200002a3200002a3200002a320000b8
:1000d8002a3200002a3200002a3200002a320000a8
:1000e8002a3200002a3200002a3200002a32000098
:1000f8002a3200002a3200002a3200002a32000088
:100108002a3200002a3200002a3200002a32000077
:100118002a3200002a3200002a3200002a32000067
:100128002a3200002a3200002a3200002a32000057
:100138002a3200002a3200002a3200002a32000047
:100148002a3200002a3200002a3200002a32000037
:100158002a3200002a3200002a3200002a32000027
:100168002a3200002a3200002a3200002a32000017
:100178002a3200002a3200002a3200002a32000007
:100188002a3200002a3200002a3200002a320000f7
:100198002a3200002a3200002a3200002a320000e7
:1001a8002a3200002a3200002a3200002a320000d7
:1001b8002a3200002a3200002a3200002a320000c7
:1001c8002a3200002a3200002a3200002a320000b7
:1001d8002a3200002a3200002a3200002a320000a7
:1001e8002a3200002a3200002a3200002a32000097
:0801f8002a3200002a32000047
:020000040000fa
:100208002a3200002a3200002a3200002a32000076
:100218002a3200002a3200002a3200002a32000066
:100228002a3200002a3200002a3200004a2f000039
:100238002a3200002a3200002a3200002a32000046
:100248002a3200002a3200002a3200002a32000036
:100258002a3200002a3200002a3200002a32000026
:100268002a3200002a3200002a3200002a32000016
:100278002a3200002a3200002a3200002a32000006
:100288002a3200002a3200002a3200002a320000f6
:100298002a3200002a3200002a3200002a320000e6
:1002a8002a3200002a3200002a3200002a320000d6
:1002b8002a3200002a3200002a3200002a320000c6
:1002c8002a3200002a3200002a3200002a320000b6
:1002d8002a3200002a3200002a3200002a320000a6
:1002e8002a3200002a3200002a3200002a32000096
:1002f8002a3200002a3200002a3200002a32000086
:100308002a3200002a3200002a3200002a32000075
:100318002a3200002a3200002a3200002a32000065
:100328002a3200002a3200002a3200002a32000055
:100338002a3200002a3200002a3200002a32000045
:100348002a3200002a3200002a3200002a32000035
:100358002a3200002a3200002a3200002a32000025
:100368002a3200002a3200002a3200002a32000015
:100378002a3200002a3200002a3200002a32000005
:100388002a3200002a3200002a3200002a320000f5
:100398002a3200002a3200002a3200002a320000e5
:1003a8002a3200002a3200002a3200002a320000d5
:1003b8002a3200002a3200002a3200002a320000c5
:1003c8002a3200002a3200002a3200002a320000b5
:1003d8002a3200002a3200002a3200002a320000a5
:1003e8002a3200002a3200002a3200002a32000095
:0803f8002a3200002a32000045
:020000040000fa
:10619c00111100002222000033330000444400009f
:1061ac00555500006666000077770000888800006f
:1061bc0099990000aaaa0000bbbb0000cccc00003f
:1061cc00dddd0000eeee0000cecd0000acab00003b
:1061dc000202000003030000040400000505000097
:1061ec000606000007070000080800000a09000066
:1061fc00101000001011000012120000514300009a
:10620c006f6e00007342000031000000515000001e
:10621c00726f000064420000320000005150000018
:10622c00726f000064420000330000005143000014
:10623c006f6e0000734200003400000051500000eb
:10624c00726f0000644200003500000051430000f2
:10625c006f6e0000734200003600000042540000d4
:10626c0065730000743100000042000054650000aa
:10627c00737400003200000054610000736b000066
:10628c003100000054610000736b0000320000000c
:10629c00496e0000744d000061740000680000003d
:0c62ac00494400004c45000000000000c8
:020000040000fa
:1062b8004fce2100807f24000001880000000000ec
:1062c8000a00070011000700000020000000e0009d
:1062d8000200320000000200000000009c140200ce
:1062e800000000000040da000000fe004440a90061
:1062f800c01120000000e000030032000000200070
:10630800a00188004440a80000000600601e230089
:10631800010020001600370062004000e0804800bd
:10632800910188009001ba0062004000e0804800b6
:10633800910188009002ba0062004000e0804800a5
:106348000002eb006028e10005003a008301e90043
:1063580007003300038009000059eb0004003700f0
:106368006128e100010032000082eb00050007000f
:10637800910188001001ba000200e000e6ff3a002f
:10638800000005009101880080027800620040004a
:10639800e08048003559ba008301e900080032005e
:1063a8002559ba008301e900050032000400e00025
:1063b800f4ff320015d9ba008301e900f1ff3a0071
:0463c80000000600cb
:020000040000fa
:1063cc00da1c0000020000000200000000000000c7
:1063dc00741c00003e00000000000000dc1c0000eb
:1063ec00020000000200000000000000021c00007f
:1063fc007200000000000000b21c00001800000039
:10640c0000000000ca1c000010000000000000008a
:10641c00de1c00000200000000000000e01c000078
:10642c000200000002000000ef0000000008000065
:10643c000214000000000000e21c0000020000003a
:08644c00000000000000000048
:020000040000fa
:046454000000fe0046
:00000001FF
